{
  "_format": "hh-sol-artifact-1",
  "contractName": "Staking",
  "sourceName": "contracts/Staking.sol",
  "abi": [
    {
      "inputs": [],
      "stateMutability": "nonpayable",
      "type": "constructor"
    },
    {
      "inputs": [
        {
          "internalType": "address",
          "name": "",
          "type": "address"
        },
        {
          "internalType": "bytes32",
          "name": "",
          "type": "bytes32"
        }
      ],
      "name": "accountBalances",
      "outputs": [
        {
          "internalType": "uint256",
          "name": "",
          "type": "uint256"
        }
      ],
      "stateMutability": "view",
      "type": "function"
    },
    {
      "inputs": [
        {
          "internalType": "uint256",
          "name": "amount",
          "type": "uint256"
        },
        {
          "internalType": "bytes32",
          "name": "symbol",
          "type": "bytes32"
        }
      ],
      "name": "depositTokens",
      "outputs": [],
      "stateMutability": "nonpayable",
      "type": "function"
    },
    {
      "inputs": [
        {
          "internalType": "bytes32",
          "name": "token",
          "type": "bytes32"
        }
      ],
      "name": "getWhitelistedTokenAddresses",
      "outputs": [
        {
          "internalType": "address",
          "name": "",
          "type": "address"
        }
      ],
      "stateMutability": "view",
      "type": "function"
    },
    {
      "inputs": [
        {
          "internalType": "bytes32",
          "name": "symbol",
          "type": "bytes32"
        },
        {
          "internalType": "address",
          "name": "tokenAddress",
          "type": "address"
        }
      ],
      "name": "whitelistToken",
      "outputs": [],
      "stateMutability": "nonpayable",
      "type": "function"
    },
    {
      "inputs": [
        {
          "internalType": "bytes32",
          "name": "",
          "type": "bytes32"
        }
      ],
      "name": "whitelistedTokens",
      "outputs": [
        {
          "internalType": "address",
          "name": "",
          "type": "address"
        }
      ],
      "stateMutability": "view",
      "type": "function"
    },
    {
      "inputs": [
        {
          "internalType": "uint256",
          "name": "amount",
          "type": "uint256"
        },
        {
          "internalType": "bytes32",
          "name": "symbol",
          "type": "bytes32"
        }
      ],
      "name": "withdrawTokens",
      "outputs": [],
      "stateMutability": "nonpayable",
      "type": "function"
    }
  ],
  "bytecode": "0x608060405234801561001057600080fd5b50336000806101000a81548173ffffffffffffffffffffffffffffffffffffffff021916908373ffffffffffffffffffffffffffffffffffffffff160217905550610a2d806100606000396000f3fe608060405234801561001057600080fd5b50600436106100625760003560e01c8063069fdaae146100675780633586932b146100835780638f97994b146100b3578063aa3d9a15146100cf578063d15b223e146100ff578063e64fe3661461011b575b600080fd5b610081600480360381019061007c9190610693565b61014b565b005b61009d6004803603810190610098919061066a565b61022f565b6040516100aa91906107a9565b60405180910390f35b6100cd60048036038101906100c891906106cf565b61026c565b005b6100e960048036038101906100e4919061066a565b61042b565b6040516100f691906107a9565b60405180910390f35b610119600480360381019061011491906106cf565b61045e565b005b61013560048036038101906101309190610605565b61058c565b6040516101429190610864565b60405180910390f35b60008054906101000a900473ffffffffffffffffffffffffffffffffffffffff1673ffffffffffffffffffffffffffffffffffffffff163373ffffffffffffffffffffffffffffffffffffffff16146101d9576040517f08c379a00000000000000000000000000000000000000000000000000000000081526004016101d090610824565b60405180910390fd5b806001600084815260200190815260200160002060006101000a81548173ffffffffffffffffffffffffffffffffffffffff021916908373ffffffffffffffffffffffffffffffffffffffff1602179055505050565b60006001600083815260200190815260200160002060009054906101000a900473ffffffffffffffffffffffffffffffffffffffff169050919050565b81600260003373ffffffffffffffffffffffffffffffffffffffff1673ffffffffffffffffffffffffffffffffffffffff16815260200190815260200160002060008381526020019081526020016000205410156102ff576040517f08c379a00000000000000000000000000000000000000000000000000000000081526004016102f690610844565b60405180910390fd5b81600260003373ffffffffffffffffffffffffffffffffffffffff1673ffffffffffffffffffffffffffffffffffffffff1681526020019081526020016000206000838152602001908152602001600020600082825461035f91906108e6565b925050819055506001600082815260200190815260200160002060009054906101000a900473ffffffffffffffffffffffffffffffffffffffff1673ffffffffffffffffffffffffffffffffffffffff1663a9059cbb33846040518363ffffffff1660e01b81526004016103d49291906107fb565b602060405180830381600087803b1580156103ee57600080fd5b505af1158015610402573d6000803e3d6000fd5b505050506040513d601f19601f820116820180604052508101906104269190610641565b505050565b60016020528060005260406000206000915054906101000a900473ffffffffffffffffffffffffffffffffffffffff1681565b81600260003373ffffffffffffffffffffffffffffffffffffffff1673ffffffffffffffffffffffffffffffffffffffff168152602001908152602001600020600083815260200190815260200160002060008282546104be9190610890565b925050819055506001600082815260200190815260200160002060009054906101000a900473ffffffffffffffffffffffffffffffffffffffff1673ffffffffffffffffffffffffffffffffffffffff166323b872dd3330856040518463ffffffff1660e01b8152600401610535939291906107c4565b602060405180830381600087803b15801561054f57600080fd5b505af1158015610563573d6000803e3d6000fd5b505050506040513d601f19601f820116820180604052508101906105879190610641565b505050565b6002602052816000526040600020602052806000526040600020600091509150505481565b6000813590506105c08161099b565b92915050565b6000815190506105d5816109b2565b92915050565b6000813590506105ea816109c9565b92915050565b6000813590506105ff816109e0565b92915050565b6000806040838503121561061857600080fd5b6000610626858286016105b1565b9250506020610637858286016105db565b9150509250929050565b60006020828403121561065357600080fd5b6000610661848285016105c6565b91505092915050565b60006020828403121561067c57600080fd5b600061068a848285016105db565b91505092915050565b600080604083850312156106a657600080fd5b60006106b4858286016105db565b92505060206106c5858286016105b1565b9150509250929050565b600080604083850312156106e257600080fd5b60006106f0858286016105f0565b9250506020610701858286016105db565b9150509250929050565b6107148161091a565b82525050565b6000610727601b8361087f565b91507f546869732066756e6374696f6e206973206e6f74207075626c696300000000006000830152602082019050919050565b600061076760118361087f565b91507f496e737566666963656e742066756e64730000000000000000000000000000006000830152602082019050919050565b6107a381610962565b82525050565b60006020820190506107be600083018461070b565b92915050565b60006060820190506107d9600083018661070b565b6107e6602083018561070b565b6107f3604083018461079a565b949350505050565b6000604082019050610810600083018561070b565b61081d602083018461079a565b9392505050565b6000602082019050818103600083015261083d8161071a565b9050919050565b6000602082019050818103600083015261085d8161075a565b9050919050565b6000602082019050610879600083018461079a565b92915050565b600082825260208201905092915050565b600061089b82610962565b91506108a683610962565b9250827fffffffffffffffffffffffffffffffffffffffffffffffffffffffffffffffff038211156108db576108da61096c565b5b828201905092915050565b60006108f182610962565b91506108fc83610962565b92508282101561090f5761090e61096c565b5b828203905092915050565b600061092582610942565b9050919050565b60008115159050919050565b6000819050919050565b600073ffffffffffffffffffffffffffffffffffffffff82169050919050565b6000819050919050565b7f4e487b7100000000000000000000000000000000000000000000000000000000600052601160045260246000fd5b6109a48161091a565b81146109af57600080fd5b50565b6109bb8161092c565b81146109c657600080fd5b50565b6109d281610938565b81146109dd57600080fd5b50565b6109e981610962565b81146109f457600080fd5b5056fea2646970667358221220e202cc2720d3faec7e61ea1a5512e305211e8ed63e97711947cc017c1144c30064736f6c63430008000033",
  "linkReferences": {},
  "deployedLinkReferences": {}
}